{"abi":[{"type":"function","name":"MAX_BYTES_PER_BLOB","inputs":[],"outputs":[{"name":"","type":"uint256","internalType":"uint256"}],"stateMutability":"view"},{"type":"function","name":"SECURITY_DELAY_AFTER_PROVEN","inputs":[],"outputs":[{"name":"","type":"uint256","internalType":"uint256"}],"stateMutability":"view"},{"type":"function","name":"acceptOwnership","inputs":[],"outputs":[],"stateMutability":"nonpayable"},{"type":"function","name":"addressManager","inputs":[],"outputs":[{"name":"","type":"address","internalType":"address"}],"stateMutability":"view"},{"type":"function","name":"getConfig","inputs":[],"outputs":[{"name":"","type":"tuple","internalType":"struct TaikoData.Config","components":[{"name":"chainId","type":"uint64","internalType":"uint64"},{"name":"blockMaxGasLimit","type":"uint32","internalType":"uint32"},{"name":"blockMaxTxListBytes","type":"uint24","internalType":"uint24"}]}],"stateMutability":"view"},{"type":"function","name":"impl","inputs":[],"outputs":[{"name":"","type":"address","internalType":"address"}],"stateMutability":"view"},{"type":"function","name":"inNonReentrant","inputs":[],"outputs":[{"name":"","type":"bool","internalType":"bool"}],"stateMutability":"view"},{"type":"function","name":"init","inputs":[{"name":"_owner","type":"address","internalType":"address"},{"name":"_addressManager","type":"address","internalType":"address"},{"name":"_genesisBlockHash","type":"bytes32","internalType":"bytes32"}],"outputs":[],"stateMutability":"nonpayable"},{"type":"function","name":"isConfigValid","inputs":[{"name":"config","type":"tuple","internalType":"struct TaikoData.Config","components":[{"name":"chainId","type":"uint64","internalType":"uint64"},{"name":"blockMaxGasLimit","type":"uint32","internalType":"uint32"},{"name":"blockMaxTxListBytes","type":"uint24","internalType":"uint24"}]}],"outputs":[{"name":"","type":"bool","internalType":"bool"}],"stateMutability":"pure"},{"type":"function","name":"lastUnpausedAt","inputs":[],"outputs":[{"name":"","type":"uint64","internalType":"uint64"}],"stateMutability":"view"},{"type":"function","name":"owner","inputs":[],"outputs":[{"name":"","type":"address","internalType":"address"}],"stateMutability":"view"},{"type":"function","name":"pause","inputs":[],"outputs":[],"stateMutability":"nonpayable"},{"type":"function","name":"paused","inputs":[],"outputs":[{"name":"","type":"bool","internalType":"bool"}],"stateMutability":"view"},{"type":"function","name":"pendingOwner","inputs":[],"outputs":[{"name":"","type":"address","internalType":"address"}],"stateMutability":"view"},{"type":"function","name":"proposeBlock","inputs":[{"name":"data","type":"tuple[]","internalType":"struct TaikoData.BlockMetadata[]","components":[{"name":"blockHash","type":"bytes32","internalType":"bytes32"},{"name":"parentBlockHash","type":"bytes32","internalType":"bytes32"},{"name":"parentMetaHash","type":"bytes32","internalType":"bytes32"},{"name":"l1Hash","type":"bytes32","internalType":"bytes32"},{"name":"difficulty","type":"uint256","internalType":"uint256"},{"name":"blobHash","type":"bytes32","internalType":"bytes32"},{"name":"extraData","type":"bytes32","internalType":"bytes32"},{"name":"coinbase","type":"address","internalType":"address"},{"name":"l2BlockNumber","type":"uint64","internalType":"uint64"},{"name":"gasLimit","type":"uint32","internalType":"uint32"},{"name":"l1StateBlockNumber","type":"uint32","internalType":"uint32"},{"name":"timestamp","type":"uint64","internalType":"uint64"},{"name":"txListByteOffset","type":"uint24","internalType":"uint24"},{"name":"txListByteSize","type":"uint24","internalType":"uint24"},{"name":"blobUsed","type":"bool","internalType":"bool"},{"name":"txList","type":"bytes","internalType":"bytes"},{"name":"stateDiffs","type":"bytes","internalType":"bytes"},{"name":"l1StateDiff","type":"tuple","internalType":"struct TaikoData.StateDiff","components":[{"name":"accounts","type":"tuple[]","internalType":"struct TaikoData.StateDiffAccount[]","components":[{"name":"addr","type":"address","internalType":"address"},{"name":"slots","type":"tuple[]","internalType":"struct TaikoData.StateDiffStorageSlot[]","components":[{"name":"key","type":"bytes32","internalType":"bytes32"},{"name":"value","type":"bytes32","internalType":"bytes32"}]}]}]}]}],"outputs":[{"name":"_blocks","type":"tuple[]","internalType":"struct TaikoData.BlockMetadata[]","components":[{"name":"blockHash","type":"bytes32","internalType":"bytes32"},{"name":"parentBlockHash","type":"bytes32","internalType":"bytes32"},{"name":"parentMetaHash","type":"bytes32","internalType":"bytes32"},{"name":"l1Hash","type":"bytes32","internalType":"bytes32"},{"name":"difficulty","type":"uint256","internalType":"uint256"},{"name":"blobHash","type":"bytes32","internalType":"bytes32"},{"name":"extraData","type":"bytes32","internalType":"bytes32"},{"name":"coinbase","type":"address","internalType":"address"},{"name":"l2BlockNumber","type":"uint64","internalType":"uint64"},{"name":"gasLimit","type":"uint32","internalType":"uint32"},{"name":"l1StateBlockNumber","type":"uint32","internalType":"uint32"},{"name":"timestamp","type":"uint64","internalType":"uint64"},{"name":"txListByteOffset","type":"uint24","internalType":"uint24"},{"name":"txListByteSize","type":"uint24","internalType":"uint24"},{"name":"blobUsed","type":"bool","internalType":"bool"},{"name":"txList","type":"bytes","internalType":"bytes"},{"name":"stateDiffs","type":"bytes","internalType":"bytes"},{"name":"l1StateDiff","type":"tuple","internalType":"struct TaikoData.StateDiff","components":[{"name":"accounts","type":"tuple[]","internalType":"struct TaikoData.StateDiffAccount[]","components":[{"name":"addr","type":"address","internalType":"address"},{"name":"slots","type":"tuple[]","internalType":"struct TaikoData.StateDiffStorageSlot[]","components":[{"name":"key","type":"bytes32","internalType":"bytes32"},{"name":"value","type":"bytes32","internalType":"bytes32"}]}]}]}]}],"stateMutability":"payable"},{"type":"function","name":"proxiableUUID","inputs":[],"outputs":[{"name":"","type":"bytes32","internalType":"bytes32"}],"stateMutability":"view"},{"type":"function","name":"renounceOwnership","inputs":[],"outputs":[],"stateMutability":"nonpayable"},{"type":"function","name":"resolve","inputs":[{"name":"_chainId","type":"uint64","internalType":"uint64"},{"name":"_name","type":"bytes32","internalType":"bytes32"},{"name":"_allowZeroAddress","type":"bool","internalType":"bool"}],"outputs":[{"name":"","type":"address","internalType":"address payable"}],"stateMutability":"view"},{"type":"function","name":"resolve","inputs":[{"name":"_name","type":"bytes32","internalType":"bytes32"},{"name":"_allowZeroAddress","type":"bool","internalType":"bool"}],"outputs":[{"name":"","type":"address","internalType":"address payable"}],"stateMutability":"view"},{"type":"function","name":"state","inputs":[],"outputs":[{"name":"genesisHeight","type":"uint64","internalType":"uint64"},{"name":"genesisTimestamp","type":"uint64","internalType":"uint64"},{"name":"numBlocks","type":"uint64","internalType":"uint64"},{"name":"lastVerifiedBlockId","type":"uint64","internalType":"uint64"},{"name":"provingPaused","type":"bool","internalType":"bool"},{"name":"lastUnpausedAt","type":"uint64","internalType":"uint64"}],"stateMutability":"view"},{"type":"function","name":"transferOwnership","inputs":[{"name":"newOwner","type":"address","internalType":"address"}],"outputs":[],"stateMutability":"nonpayable"},{"type":"function","name":"unpause","inputs":[],"outputs":[],"stateMutability":"nonpayable"},{"type":"function","name":"upgradeTo","inputs":[{"name":"newImplementation","type":"address","internalType":"address"}],"outputs":[],"stateMutability":"nonpayable"},{"type":"function","name":"upgradeToAndCall","inputs":[{"name":"newImplementation","type":"address","internalType":"address"},{"name":"data","type":"bytes","internalType":"bytes"}],"outputs":[],"stateMutability":"payable"},{"type":"event","name":"AdminChanged","inputs":[{"name":"previousAdmin","type":"address","indexed":false,"internalType":"address"},{"name":"newAdmin","type":"address","indexed":false,"internalType":"address"}],"anonymous":false},{"type":"event","name":"BeaconUpgraded","inputs":[{"name":"beacon","type":"address","indexed":true,"internalType":"address"}],"anonymous":false},{"type":"event","name":"BlockProposed","inputs":[{"name":"blockId","type":"uint256","indexed":true,"internalType":"uint256"},{"name":"meta","type":"tuple","indexed":false,"internalType":"struct TaikoData.BlockMetadata","components":[{"name":"blockHash","type":"bytes32","internalType":"bytes32"},{"name":"parentBlockHash","type":"bytes32","internalType":"bytes32"},{"name":"parentMetaHash","type":"bytes32","internalType":"bytes32"},{"name":"l1Hash","type":"bytes32","internalType":"bytes32"},{"name":"difficulty","type":"uint256","internalType":"uint256"},{"name":"blobHash","type":"bytes32","internalType":"bytes32"},{"name":"extraData","type":"bytes32","internalType":"bytes32"},{"name":"coinbase","type":"address","internalType":"address"},{"name":"l2BlockNumber","type":"uint64","internalType":"uint64"},{"name":"gasLimit","type":"uint32","internalType":"uint32"},{"name":"l1StateBlockNumber","type":"uint32","internalType":"uint32"},{"name":"timestamp","type":"uint64","internalType":"uint64"},{"name":"txListByteOffset","type":"uint24","internalType":"uint24"},{"name":"txListByteSize","type":"uint24","internalType":"uint24"},{"name":"blobUsed","type":"bool","internalType":"bool"},{"name":"txList","type":"bytes","internalType":"bytes"},{"name":"stateDiffs","type":"bytes","internalType":"bytes"},{"name":"l1StateDiff","type":"tuple","internalType":"struct TaikoData.StateDiff","components":[{"name":"accounts","type":"tuple[]","internalType":"struct TaikoData.StateDiffAccount[]","components":[{"name":"addr","type":"address","internalType":"address"},{"name":"slots","type":"tuple[]","internalType":"struct TaikoData.StateDiffStorageSlot[]","components":[{"name":"key","type":"bytes32","internalType":"bytes32"},{"name":"value","type":"bytes32","internalType":"bytes32"}]}]}]}]}],"anonymous":false},{"type":"event","name":"BlockVerified","inputs":[{"name":"blockId","type":"uint256","indexed":true,"internalType":"uint256"},{"name":"blockHash","type":"bytes32","indexed":false,"internalType":"bytes32"}],"anonymous":false},{"type":"event","name":"Initialized","inputs":[{"name":"version","type":"uint8","indexed":false,"internalType":"uint8"}],"anonymous":false},{"type":"event","name":"OwnershipTransferStarted","inputs":[{"name":"previousOwner","type":"address","indexed":true,"internalType":"address"},{"name":"newOwner","type":"address","indexed":true,"internalType":"address"}],"anonymous":false},{"type":"event","name":"OwnershipTransferred","inputs":[{"name":"previousOwner","type":"address","indexed":true,"internalType":"address"},{"name":"newOwner","type":"address","indexed":true,"internalType":"address"}],"anonymous":false},{"type":"event","name":"Paused","inputs":[{"name":"account","type":"address","indexed":false,"internalType":"address"}],"anonymous":false},{"type":"event","name":"ProvingPaused","inputs":[{"name":"paused","type":"bool","indexed":false,"internalType":"bool"}],"anonymous":false},{"type":"event","name":"TransitionProved","inputs":[{"name":"blockId","type":"uint256","indexed":true,"internalType":"uint256"},{"name":"tran","type":"tuple","indexed":false,"internalType":"struct TaikoData.Transition","components":[{"name":"parentBlockHash","type":"bytes32","internalType":"bytes32"},{"name":"blockHash","type":"bytes32","internalType":"bytes32"}]},{"name":"prover","type":"address","indexed":false,"internalType":"address"}],"anonymous":false},{"type":"event","name":"Unpaused","inputs":[{"name":"account","type":"address","indexed":false,"internalType":"address"}],"anonymous":false},{"type":"event","name":"Upgraded","inputs":[{"name":"implementation","type":"address","indexed":true,"internalType":"address"}],"anonymous":false},{"type":"error","name":"FUNC_NOT_IMPLEMENTED","inputs":[]},{"type":"error","name":"INVALID_PAUSE_STATUS","inputs":[]},{"type":"error","name":"L1_ALREADY_CONTESTED","inputs":[]},{"type":"error","name":"L1_ALREADY_PROVED","inputs":[]},{"type":"error","name":"L1_ASSIGNED_PROVER_NOT_ALLOWED","inputs":[]},{"type":"error","name":"L1_BLOB_FOR_DA_DISABLED","inputs":[]},{"type":"error","name":"L1_BLOB_NOT_FOUND","inputs":[]},{"type":"error","name":"L1_BLOB_NOT_REUSEABLE","inputs":[]},{"type":"error","name":"L1_BLOCK_MISMATCH","inputs":[]},{"type":"error","name":"L1_INCORRECT_BLOCK","inputs":[]},{"type":"error","name":"L1_INSUFFICIENT_TOKEN","inputs":[]},{"type":"error","name":"L1_INVALID_ADDRESS","inputs":[]},{"type":"error","name":"L1_INVALID_AMOUNT","inputs":[]},{"type":"error","name":"L1_INVALID_BLOCK_ID","inputs":[]},{"type":"error","name":"L1_INVALID_CONFIG","inputs":[]},{"type":"error","name":"L1_INVALID_ETH_DEPOSIT","inputs":[]},{"type":"error","name":"L1_INVALID_L1_STATE_BLOCK","inputs":[]},{"type":"error","name":"L1_INVALID_OR_DUPLICATE_VERIFIER","inputs":[]},{"type":"error","name":"L1_INVALID_PARAM","inputs":[]},{"type":"error","name":"L1_INVALID_PAUSE_STATUS","inputs":[]},{"type":"error","name":"L1_INVALID_PROOF","inputs":[]},{"type":"error","name":"L1_INVALID_PROPOSER","inputs":[]},{"type":"error","name":"L1_INVALID_PROVER","inputs":[]},{"type":"error","name":"L1_INVALID_TIER","inputs":[]},{"type":"error","name":"L1_INVALID_TIMESTAMP","inputs":[]},{"type":"error","name":"L1_INVALID_TRANSITION","inputs":[]},{"type":"error","name":"L1_LIVENESS_BOND_NOT_RECEIVED","inputs":[]},{"type":"error","name":"L1_NOT_ASSIGNED_PROVER","inputs":[]},{"type":"error","name":"L1_PROPOSER_NOT_EOA","inputs":[]},{"type":"error","name":"L1_PROVING_PAUSED","inputs":[]},{"type":"error","name":"L1_RECEIVE_DISABLED","inputs":[]},{"type":"error","name":"L1_TOO_MANY_BLOCKS","inputs":[]},{"type":"error","name":"L1_TOO_MANY_TIERS","inputs":[]},{"type":"error","name":"L1_TRANSITION_ID_ZERO","inputs":[]},{"type":"error","name":"L1_TRANSITION_NOT_FOUND","inputs":[]},{"type":"error","name":"L1_TXLIST_OFFSET_SIZE","inputs":[]},{"type":"error","name":"L1_TXLIST_TOO_LARGE","inputs":[]},{"type":"error","name":"L1_UNAUTHORIZED","inputs":[]},{"type":"error","name":"L1_UNEXPECTED_PARENT","inputs":[]},{"type":"error","name":"L1_UNEXPECTED_TRANSITION_ID","inputs":[]},{"type":"error","name":"L1_UNEXPECTED_TRANSITION_TIER","inputs":[]},{"type":"error","name":"REENTRANT_CALL","inputs":[]},{"type":"error","name":"RESOLVER_DENIED","inputs":[]},{"type":"error","name":"RESOLVER_INVALID_MANAGER","inputs":[]},{"type":"error","name":"RESOLVER_UNEXPECTED_CHAINID","inputs":[]},{"type":"error","name":"RESOLVER_ZERO_ADDR","inputs":[{"name":"chainId","type":"uint64","internalType":"uint64"},{"name":"name","type":"bytes32","internalType":"bytes32"}]},{"type":"error","name":"ZERO_ADDRESS","inputs":[]},{"type":"error","name":"ZERO_VALUE","inputs":[]}],"bytecode":{"object":"0x60a06040523060805234801562000014575f80fd5b506200001f6200002f565b620000296200002f565b620000ed565b5f54610100900460ff16156200009b5760405162461bcd60e51b815260206004820152602760248201527f496e697469616c697a61626c653a20636f6e747261637420697320696e697469604482015266616c697a696e6760c81b606482015260840160405180910390fd5b5f5460ff90811614620000eb575f805460ff191660ff9081179091556040519081527f7f26b83ff96e1f2b6a682f133852f6798a09c465da95921460cefb38474024989060200160405180910390a15b565b6080516125cd620001225f395f8181610792015281816107d201528181610881015281816108c1015261093c01526125cd5ff3fe608060405260043610610147575f3560e01c8063715018a6116100b3578063a86f9d9e1161006d578063a86f9d9e1461034a578063c19d93fb14610369578063c3f909d4146103fb578063e07baba614610445578063e30c397814610482578063f2fde38b1461049f575f80fd5b8063715018a6146102c757806379ba5097146102db57806381e3925f146102ef5780638456cb59146103055780638abf6077146103195780638da5cb5b1461032d575f80fd5b80633f4ba83a116101045780633f4ba83a146102295780634f1ef2861461023d57806352d1902d146102505780635c975abb1461027257806365cfd675146102925780636b5ad7e0146102b2575f80fd5b806310f3ab1b1461014b5780633075db561461017f578063347258aa146101935780633659cfe6146101b45780633ab76e9f146101d35780633eb6b8cf1461020a575b5f80fd5b348015610156575f80fd5b5061016a6101653660046116ec565b6104be565b60405190151581526020015b60405180910390f35b34801561018a575f80fd5b5061016a61051f565b34801561019e575f80fd5b506101b26101ad366004611774565b610533565b005b3480156101bf575f80fd5b506101b26101ce3660046117b2565b610788565b3480156101de575f80fd5b506097546101f2906001600160a01b031681565b6040516001600160a01b039091168152602001610176565b348015610215575f80fd5b506101f26102243660046117dc565b61084f565b348015610234575f80fd5b506101b2610863565b6101b261024b366004611880565b610877565b34801561025b575f80fd5b50610264610930565b604051908152602001610176565b34801561027d575f80fd5b5061016a60c954610100900460ff1660021490565b6102a56102a03660046118cc565b6109e1565b6040516101769190611a36565b3480156102bd575f80fd5b5061026461708081565b3480156102d2575f80fd5b506101b2610aa5565b3480156102e6575f80fd5b506101b2610ab6565b3480156102fa575f80fd5b506102646202000081565b348015610310575f80fd5b506101b2610b2d565b348015610324575f80fd5b506101f2610b40565b348015610338575f80fd5b506033546001600160a01b03166101f2565b348015610355575f80fd5b506101f2610364366004611bb5565b610b4e565b348015610374575f80fd5b5060fd5460fe546103b9916001600160401b0380821692600160401b8304821692600160801b8104831692600160c01b90910481169160ff8116916101009091041686565b604080516001600160401b03978816815295871660208701529386169385019390935290841660608401521515608083015290911660a082015260c001610176565b348015610406575f80fd5b5061040f610b61565b6040805182516001600160401b0316815260208084015163ffffffff16908201529181015162ffffff1690820152606001610176565b348015610450575f80fd5b5060c95461046a906201000090046001600160401b031681565b6040516001600160401b039091168152602001610176565b34801561048d575f80fd5b506065546001600160a01b03166101f2565b3480156104aa575f80fd5b506101b26104b93660046117b2565b610ba5565b5f6001825f01516001600160401b03161115806104e35750602082015163ffffffff16155b806104f55750604082015162ffffff16155b8061050b575062020000826040015162ffffff16115b1561051757505f919050565b506001919050565b5f600261052a610c16565b60ff1614905090565b5f54610100900460ff161580801561055157505f54600160ff909116105b8061056a5750303b15801561056a57505f5460ff166001145b6105d25760405162461bcd60e51b815260206004820152602e60248201527f496e697469616c697a61626c653a20636f6e747261637420697320616c72656160448201526d191e481a5b9a5d1a585b1a5e995960921b60648201526084015b60405180910390fd5b5f805460ff1916600117905580156105f3575f805461ff0019166101001790555b6105fd8484610c55565b5f610606610b61565b9050610611816104be565b61064e5760405162461bcd60e51b815260206004820152600e60248201526d696e76616c696420636f6e66696760901b60448201526064016105c9565b60fd805467ffffffffffffffff60801b19426001600160401b03908116600160401b026fffffffffffffffffffffffffffffffff19909316439190911617821716600160801b179091555f80805260fb6020527fc88390e7e62175be0932452175b6a7222b6b094ab0ef984a5153c620345d89758581557fc88390e7e62175be0932452175b6a7222b6b094ab0ef984a5153c620345d897780546fffffffffffffffff000000000000000019169093179092556040517f68b82650828a9621868d09dc161400acbe189fa002e3fb7cf9dea5c2c6f928ee906107339087815260200190565b60405180910390a250508015610782575f805461ff0019169055604051600181527f7f26b83ff96e1f2b6a682f133852f6798a09c465da95921460cefb38474024989060200160405180910390a15b50505050565b6001600160a01b037f00000000000000000000000000000000000000000000000000000000000000001630036107d05760405162461bcd60e51b81526004016105c990611bdf565b7f00000000000000000000000000000000000000000000000000000000000000006001600160a01b0316610802610c94565b6001600160a01b0316146108285760405162461bcd60e51b81526004016105c990611c2b565b61083181610caf565b604080515f8082526020820190925261084c91839190610cb7565b50565b5f61085b848484610e21565b949350505050565b61086b610f12565b610875335f610fa2565b565b6001600160a01b037f00000000000000000000000000000000000000000000000000000000000000001630036108bf5760405162461bcd60e51b81526004016105c990611bdf565b7f00000000000000000000000000000000000000000000000000000000000000006001600160a01b03166108f1610c94565b6001600160a01b0316146109175760405162461bcd60e51b81526004016105c990611c2b565b61092082610caf565b61092c82826001610cb7565b5050565b5f306001600160a01b037f000000000000000000000000000000000000000000000000000000000000000016146109cf5760405162461bcd60e51b815260206004820152603860248201527f555550535570677261646561626c653a206d757374206e6f742062652063616c60448201527f6c6564207468726f7567682064656c656761746563616c6c000000000000000060648201526084016105c9565b505f8051602061255183398151915290565b606060026109ed610c16565b60ff1603610a0e5760405163dfc60d8560e01b815260040160405180910390fd5b610a186002610faa565b610a2c60c954610100900460ff1660021490565b15610a4a5760405163bae6e2a960e01b815260040160405180910390fd5b5f5b82811015610a8857610a80848483818110610a6957610a69611c77565b9050602002810190610a7b9190611c8b565b610ff2565b600101610a4c565b50610a938284611e58565b9050610a9f6001610faa565b92915050565b610aad61115f565b6108755f6111b9565b60655433906001600160a01b03168114610b245760405162461bcd60e51b815260206004820152602960248201527f4f776e61626c6532537465703a2063616c6c6572206973206e6f7420746865206044820152683732bb9037bbb732b960b91b60648201526084016105c9565b61084c816111b9565b610b356111d2565b610875336001610fa2565b5f610b49610c94565b905090565b5f610b5a468484610e21565b9392505050565b604080516060810182525f8082526020820181905291810191909152506040805160608101825262028c60815262e4e1c060208201526201d4c09181019190915290565b610bad61115f565b606580546001600160a01b0383166001600160a01b03199091168117909155610bde6033546001600160a01b031690565b6001600160a01b03167f38d16b8cac22d99fc7c124b9cd0de2d3fa1faef420bfe791d8c362d765e2270060405160405180910390a350565b5f610c2046611243565b15610c4b57507fa5054f728453d3dbe953bdc43e4d0cb97e662ea32d7958190f3dc2da31d9721b5c90565b5060c95460ff1690565b806001600160a01b038116610c7d5760405163538ba4f960e01b815260040160405180910390fd5b610c8683611270565b610c8f826112ce565b505050565b5f80516020612551833981519152546001600160a01b031690565b61084c61115f565b7f4910fdfa16fed3260ed0e7147f7cc6da11a60208b5b9406d12a635614ffd91435460ff1615610cea57610c8f8361133e565b826001600160a01b03166352d1902d6040518163ffffffff1660e01b8152600401602060405180830381865afa925050508015610d44575060408051601f3d908101601f19168201909252610d4191810190612018565b60015b610da75760405162461bcd60e51b815260206004820152602e60248201527f45524331393637557067726164653a206e657720696d706c656d656e7461746960448201526d6f6e206973206e6f74205555505360901b60648201526084016105c9565b5f805160206125518339815191528114610e155760405162461bcd60e51b815260206004820152602960248201527f45524331393637557067726164653a20756e737570706f727465642070726f786044820152681a58589b195555525160ba1b60648201526084016105c9565b50610c8f8383836113d9565b6097545f906001600160a01b031680610e4d57604051638ed88b2560e01b815260040160405180910390fd5b604051630a3dc4f360e21b81526001600160401b0386166004820152602481018590526001600160a01b038216906328f713cc90604401602060405180830381865afa158015610e9f573d5f803e3d5ffd5b505050506040513d601f19601f82011682018060405250810190610ec3919061202f565b915082158015610eda57506001600160a01b038216155b15610f0a57604051632b0d65db60e01b81526001600160401b0386166004820152602481018590526044016105c9565b509392505050565b610f2660c954610100900460ff1660021490565b610f435760405163bae6e2a960e01b815260040160405180910390fd5b60c9805461010069ffffffffffffffffff001990911662010000426001600160401b031602171790556040513381527f5db9ee0a495bf2e6ff9c91a7834c1ba4fdd244a5e8aa4e537bd38aeae4b073aa906020015b60405180910390a1565b61092c61115f565b610fb346611243565b15610fde57807fa5054f728453d3dbe953bdc43e4d0cb97e662ea32d7958190f3dc2da31d9721b5d50565b60c9805460ff831660ff1990911617905550565b5f5b61100261022083018361204a565b61100c908061205e565b90508110156111095761102361022083018361204a565b61102d908061205e565b8281811061103d5761103d611c77565b905060200281019061104f91906120aa565b61105d9060208101906117b2565b6001600160a01b031663307c30dd61107961022085018561204a565b611083908061205e565b8481811061109357611093611c77565b90506020028101906110a591906120aa565b6110b39060208101906120be565b6040518363ffffffff1660e01b81526004016110d0929190612142565b5f604051808303815f87803b1580156110e7575f80fd5b505af11580156110f9573d5f803e3d5ffd5b505060019092019150610ff49050565b5061111c61012082016101008301612155565b6001600160401b03167fbfbd11d93a0da0bb42e73cc53fbaab5714fa7d372abcf795303cfe3a57722498826040516111549190612303565b60405180910390a250565b6033546001600160a01b031633146108755760405162461bcd60e51b815260206004820181905260248201527f4f776e61626c653a2063616c6c6572206973206e6f7420746865206f776e657260448201526064016105c9565b606580546001600160a01b031916905561084c816113fd565b6111e660c954610100900460ff1660021490565b156112045760405163bae6e2a960e01b815260040160405180910390fd5b60c9805461ff0019166102001790556040513381527f62e78cea01bee320cd4e420270b5ea74000d11b0c9f74754ebdbfc544b05a25890602001610f98565b5f6001821480611254575061426882145b80611261575062aa36a782145b80610a9f5750610a9f8261144e565b5f54610100900460ff166112965760405162461bcd60e51b81526004016105c9906124e2565b61129e611465565b6112bc6001600160a01b038216156112b657816111b9565b336111b9565b5060c9805461ff001916610100179055565b5f54610100900460ff166112f45760405162461bcd60e51b81526004016105c9906124e2565b6001600160401b0346111561131c5760405163a12e8fa960e01b815260040160405180910390fd5b609780546001600160a01b0319166001600160a01b0392909216919091179055565b6001600160a01b0381163b6113ab5760405162461bcd60e51b815260206004820152602d60248201527f455243313936373a206e657720696d706c656d656e746174696f6e206973206e60448201526c1bdd08184818dbdb9d1c9858dd609a1b60648201526084016105c9565b5f8051602061255183398151915280546001600160a01b0319166001600160a01b0392909216919091179055565b6113e28361148b565b5f825111806113ee5750805b15610c8f5761078283836114ca565b603380546001600160a01b038381166001600160a01b0319831681179093556040519116919082907f8be0079c531659141344cd1fd0a4f28419497f9722a3daafe3b4186f6b6457e0905f90a35050565b5f617e2c8210158015610a9f575050617e90101590565b5f54610100900460ff166108755760405162461bcd60e51b81526004016105c9906124e2565b6114948161133e565b6040516001600160a01b038216907fbc7cd75a20ee27fd9adebab32041f755214dbc6bffa90cc0225b39da2e5c2d3b905f90a250565b6060610b5a83836040518060600160405280602781526020016125716027913960605f80856001600160a01b031685604051611506919061252d565b5f60405180830381855af49150503d805f811461153e576040519150601f19603f3d011682016040523d82523d5f602084013e611543565b606091505b50915091506115548683838761155e565b9695505050505050565b606083156115cc5782515f036115c5576001600160a01b0385163b6115c55760405162461bcd60e51b815260206004820152601d60248201527f416464726573733a2063616c6c20746f206e6f6e2d636f6e747261637400000060448201526064016105c9565b508161085b565b61085b83838151156115e15781518083602001fd5b8060405162461bcd60e51b81526004016105c9919061253e565b634e487b7160e01b5f52604160045260245ffd5b604051602081016001600160401b0381118282101715611631576116316115fb565b60405290565b604080519081016001600160401b0381118282101715611631576116316115fb565b60405161024081016001600160401b0381118282101715611631576116316115fb565b604051601f8201601f191681016001600160401b03811182821017156116a4576116a46115fb565b604052919050565b80356001600160401b03811681146116c2575f80fd5b919050565b803563ffffffff811681146116c2575f80fd5b803562ffffff811681146116c2575f80fd5b5f606082840312156116fc575f80fd5b604051606081018181106001600160401b038211171561171e5761171e6115fb565b60405261172a836116ac565b8152611738602084016116c7565b6020820152611749604084016116da565b60408201529392505050565b6001600160a01b038116811461084c575f80fd5b80356116c281611755565b5f805f60608486031215611786575f80fd5b833561179181611755565b925060208401356117a181611755565b929592945050506040919091013590565b5f602082840312156117c2575f80fd5b8135610b5a81611755565b803580151581146116c2575f80fd5b5f805f606084860312156117ee575f80fd5b6117f7846116ac565b92506020840135915061180c604085016117cd565b90509250925092565b5f82601f830112611824575f80fd5b81356001600160401b0381111561183d5761183d6115fb565b611850601f8201601f191660200161167c565b818152846020838601011115611864575f80fd5b816020850160208301375f918101602001919091529392505050565b5f8060408385031215611891575f80fd5b823561189c81611755565b915060208301356001600160401b038111156118b6575f80fd5b6118c285828601611815565b9150509250929050565b5f80602083850312156118dd575f80fd5b82356001600160401b03808211156118f3575f80fd5b818501915085601f830112611906575f80fd5b813581811115611914575f80fd5b8660208260051b8501011115611928575f80fd5b60209290920196919550909350505050565b5f5b8381101561195457818101518382015260200161193c565b50505f910152565b5f815180845261197381602086016020860161193a565b601f01601f19169290920160200192915050565b8051602080845281518482018190525f926040919083019082870190600581901b88018401865b82811015611a2957898203603f19018452845180516001600160a01b031683528701518783018790528051878401819052908801905f9060608501905b80831015611a14578351805183528b01518b830152928a019260019290920191908901906119eb565b509689019695890195935050506001016119ae565b5098975050505050505050565b5f60208083018184528085518083526040925060408601915060408160051b8701018488015f5b83811015611ba757888303603f1901855281518051845287810151888501528681015187850152606080820151908501526080808201519085015260a0808201519085015260c0808201519085015260e0808201516001600160a01b031690850152610100808201516001600160401b03908116918601919091526101208083015163ffffffff90811691870191909152610140808401519091169086015261016080830151909116908501526101808082015162ffffff908116918601919091526101a080830151909116908501526101c0808201511515908501526101e0808201516102408287018190529190611b588388018261195c565b925050506102008083015186830382880152611b74838261195c565b925050506102208083015192508582038187015250611b938183611987565b968901969450505090860190600101611a5d565b509098975050505050505050565b5f8060408385031215611bc6575f80fd5b82359150611bd6602084016117cd565b90509250929050565b6020808252602c908201527f46756e6374696f6e206d7573742062652063616c6c6564207468726f7567682060408201526b19195b1959d85d1958d85b1b60a21b606082015260800190565b6020808252602c908201527f46756e6374696f6e206d7573742062652063616c6c6564207468726f7567682060408201526b6163746976652070726f787960a01b606082015260800190565b634e487b7160e01b5f52603260045260245ffd5b5f823561023e19833603018112611ca0575f80fd5b9190910192915050565b5f6001600160401b03821115611cc257611cc26115fb565b5060051b60200190565b5f60208284031215611cdc575f80fd5b611ce461160f565b90506001600160401b038083351115611cfb575f80fd5b8235830184601f820112611d0d575f80fd5b611d1f611d1a8235611caa565b61167c565b81358082526020808301929160051b84010187811115611d3d575f80fd5b602084015b81811015611e4a578581351115611d57575f80fd5b803585016040818b03601f19011215611d6e575f80fd5b611d76611637565b611d836020830135611755565b602082013581528760408301351115611d9a575f80fd5b6040820135820191508a603f830112611db1575f80fd5b6020820135611dc2611d1a82611caa565b81815260069190911b83016040019060208101908d831115611de2575f80fd5b6040850194505b82851015611e2b576040858f031215611e00575f80fd5b611e08611637565b853581526020860135602082015280835250602082019150604085019450611de9565b8060208501525050508086525050602084019350602081019050611d42565b505084525091949350505050565b5f611e65611d1a84611caa565b80848252602080830192508560051b850136811115611e82575f80fd5b855b8181101561200c5780356001600160401b0380821115611ea2575f80fd5b81890191506102408236031215611eb7575f80fd5b611ebf611659565b82358152858301358682015260408084013590820152606080840135908201526080808401359082015260a0808401359082015260c0808401359082015260e0611f0a818501611769565b90820152610100611f1c8482016116ac565b90820152610120611f2e8482016116c7565b90820152610140611f408482016116c7565b90820152610160611f528482016116ac565b90820152610180611f648482016116da565b908201526101a0611f768482016116da565b908201526101c0611f888482016117cd565b908201526101e08381013583811115611f9f575f80fd5b611fab36828701611815565b8284015250506102008084013583811115611fc4575f80fd5b611fd036828701611815565b8284015250506102208084013583811115611fe9575f80fd5b611ff536828701611ccc565b918301919091525087525050938201938201611e84565b50919695505050505050565b5f60208284031215612028575f80fd5b5051919050565b5f6020828403121561203f575f80fd5b8151610b5a81611755565b5f8235601e19833603018112611ca0575f80fd5b5f808335601e19843603018112612073575f80fd5b8301803591506001600160401b0382111561208c575f80fd5b6020019150600581901b36038213156120a3575f80fd5b9250929050565b5f8235603e19833603018112611ca0575f80fd5b5f808335601e198436030181126120d3575f80fd5b8301803591506001600160401b038211156120ec575f80fd5b6020019150600681901b36038213156120a3575f80fd5b8183525f60208085019450825f5b858110156121375781358752828201358388015260409687019690910190600101612111565b509495945050505050565b602081525f61085b602083018486612103565b5f60208284031215612165575f80fd5b610b5a826116ac565b5f808335601e19843603018112612183575f80fd5b83016020810192503590506001600160401b038111156121a1575f80fd5b8036038213156120a3575f80fd5b81835281816020850137505f828201602090810191909152601f909101601f19169091010190565b5f8235601e198336030181126121eb575f80fd5b90910192915050565b5f60208084018335601e1985360301811261220d575f80fd5b840180358382016001600160401b0380831115612228575f80fd5b8260051b80360383131561223a575f80fd5b868a529483905260409489018501858a015f36879003605e19015b868210156122f2578c8403603f190183528535818112612273575f80fd5b88018a81013561228281611755565b6001600160a01b03168552808a013536829003603e190181126122a3575f80fd5b01898101908b0135868111156122b7575f80fd5b8060061b36038213156122c8575f80fd5b8a8c8701526122da8b87018284612103565b978c0197955050509189019160019190910190612255565b50919b9a5050505050505050505050565b6020815281356020820152602082013560408201526040820135606082015260608201356080820152608082013560a082015260a082013560c082015260c082013560e08201525f61235760e08401611769565b61010061236e818501836001600160a01b03169052565b6123798186016116ac565b915050610120612393818501836001600160401b03169052565b61239e8186016116c7565b9150506101406123b58185018363ffffffff169052565b6123c08186016116c7565b9150506101606123d78185018363ffffffff169052565b6123e28186016116ac565b9150506101806123fc818501836001600160401b03169052565b6124078186016116da565b9150506101a061241d8185018362ffffff169052565b6124288186016116da565b9150506101c061243e8185018362ffffff169052565b6124498186016117cd565b9150506101e061245c8185018315159052565b6124688186018661216e565b925090506102406102008181870152612486610260870185856121af565b93506124948188018861216e565b93509050601f196102208188870301818901526124b28686856121af565b95506124c0818a018a6121d7565b9450508087860301838801525050506124d982826121f4565b95945050505050565b6020808252602b908201527f496e697469616c697a61626c653a20636f6e7472616374206973206e6f74206960408201526a6e697469616c697a696e6760a81b606082015260800190565b5f8251611ca081846020870161193a565b602081525f610b5a602083018461195c56fe360894a13ba1a3210667c828492db98dca3e2076cc3735a920a3ca505d382bbc416464726573733a206c6f772d6c6576656c2064656c65676174652063616c6c206661696c6564a26469706673582212201fe472e8885cd4692d62ced21917ba755e872baf81e49732b5fb3c28ab56625264736f6c63430008180033","linkReferences":{}},"methodIdentifiers":{"MAX_BYTES_PER_BLOB()":"81e3925f","SECURITY_DELAY_AFTER_PROVEN()":"6b5ad7e0","acceptOwnership()":"79ba5097","addressManager()":"3ab76e9f","getConfig()":"c3f909d4","impl()":"8abf6077","inNonReentrant()":"3075db56","init(address,address,bytes32)":"347258aa","isConfigValid((uint64,uint32,uint24))":"10f3ab1b","lastUnpausedAt()":"e07baba6","owner()":"8da5cb5b","pause()":"8456cb59","paused()":"5c975abb","pendingOwner()":"e30c3978","proposeBlock((bytes32,bytes32,bytes32,bytes32,uint256,bytes32,bytes32,address,uint64,uint32,uint32,uint64,uint24,uint24,bool,bytes,bytes,((address,(bytes32,bytes32)[])[]))[])":"65cfd675","proxiableUUID()":"52d1902d","renounceOwnership()":"715018a6","resolve(bytes32,bool)":"a86f9d9e","resolve(uint64,bytes32,bool)":"3eb6b8cf","state()":"c19d93fb","transferOwnership(address)":"f2fde38b","unpause()":"3f4ba83a","upgradeTo(address)":"3659cfe6","upgradeToAndCall(address,bytes)":"4f1ef286"},"id":4}